:020000040800F2
:1000000000A00020AD030008D9010008C5010008C8
:10001000C1010008AD0100089901000800000000BE
:100020000000000000000000000000009501000832
:1000300091010008000000008D0100080104000883
:100040008901000889010008890100088901000868
:100050008901000889010008890100088901000858
:100060008901000889010008890100088901000848
:100070008901000889010008890100088901000838
:100080008901000889010008890100088901000828
:100090008901000889010008890100088901000818
:1000A0008901000889010008890100088901000808
:1000B00089010008890100088901000889010008F8
:1000C00089010008890100088901000889010008E8
:1000D00089010008890100088901000889010008D8
:1000E00089010008890100088901000889010008C8
:1000F00089010008890100088901000889010008B8
:10010000000000000000000000000000890100085D
:100110008901000889010008890100088901000897
:100120008901000889010008890100088901000887
:10013000890100088901000800000000000000009B
:1001400089010008890100088901000800000000F9
:10015000000000000000000000000000000000009F
:10016000000000000000000089010008890100086B
:1001700089010008000000000000000000000000ED
:10018000000000008901000800BEFEE700BEFEE797
:1001900000BEFEE700BEFEE71EF0040F0CBFEFF34B
:1001A0000880EFF309807146824A10471EF0040F61
:1001B0000CBFEFF30880EFF3098071467E4A1047C9
:1001C00000BEFEE71EF0040F0CBFEFF30880EFF354
:1001D00009807146794A104700BEFEE780B582B0BB
:1001E00004468846084B5E6B9F6B9D6A074800F08B
:1001F000E1FBCDF800803B4632462946204600F020
:10020000F1FB00BEFEE700BF00ED00E0882600081D
:1002100080B582B004468846084B5E6B9F6B9D6A32
:10022000074800F0C7FBCDF800803B463246294620
:10023000204600F0D7FB00BEFEE700BF00ED00E067
:10024000982600082DE9F04182B004468846134BF9
:100250005E6B9F6B9D6A1B6B13F0020F03D00F4BFD
:10026000DB6A002B0CDB0E4800F0A4FBCDF800800D
:100270003B4632462946204600F0B4FB00BEFEE76E
:100280004BF6AB6100F0B8F90028ECD04FF000421B
:10029000024BDA6202B0BDE8F08100BF00ED00E081
:1002A000A426000800B583B000F0BAF9304B314AFB
:1002B0001360314A1360314906E011681960043354
:1002C00004329842F9D821462D4B994205D20A684A
:1002D0004B6801F10C048868F3E7264B1A68294B38
:1002E0009A4200D0FEE7244B1A68274B9A42F9D174
:1002F0001F4B264A1360264A1360264B05E0002058
:10030000106004329342FAD80B46234A934204D237
:10031000194651F8082B5B68F4E71C4B1B6813B9AE
:100320001B4B1B6803B1FEE700F076F9694601A894
:1003300000F0B6F9194B1A4CE41AA4100025AC428F
:100340000ADC184B184CE41AA4100025AC4209DC56
:100350000099019801F008FA104B53F8253098479E
:100360000135ECE70F4B53F8253098470135EDE7A1
:10037000BABADECA00000020B0000020C0030008A6
:10038000D80300087856341232547698B40000200E
:1003900074010020D8030008E8030008E8030008FF
:1003A000E8030008E8030008E803000808B5FFF7C1
:1003B00079FF0000DD010008110200084502000875
:1003C000E826000800000020B4000020E82600080D
:1003D0000000001000000010B40000207801002090
:0803E0000000001000000010F5
:1003F000024A136801331360704700BF6401002094
:1004000008B5FFF7F5FF08BD034B1A68024B1B68E0
:100410009B1A8342FAD37047640100200A4B1B6881
:100420004FF47A72B3FBF2F3013BB3F1807F09D250
:10043000064A5360F021064B83F823100023936093
:1004400007231360704700BF4000002010E000E069
:1004500000ED00E082B0002301930093274A136867
:1004600043F480331360254B1B6803F4003300937F
:10047000019B01330193009B1BB9019BB3F5A06F56
:10048000F1D11E4B1B6813F4003F06D001230093EB
:10049000009B012B04D002B0704700230093F7E7C4
:1004A0001222174B1A60A3F580535A685A605A6893
:1004B0005A605A6842F480625A605A6822F47C1288
:1004C0005A605A6842F4E8125A601A6842F0807220
:1004D0001A600A4B1B6813F0007FFAD0074B5A686A
:1004E00022F003025A605A6842F002025A60034B3B
:1004F0005B6803F00C03082BF9D1CCE70010024035
:10050000002002401E4B5B6803F00C03042B12D04A
:10051000082B14D0002B2ED11A4A1B4B1A60184BF3
:100520005B68C3F30313194AD35CDAB216490B684C
:10053000D3400B607047134A134B1A60EFE7104A21
:1005400053685268C3F38343023312F4803F05D1EA
:100550000F4A02FB03F30C4A1360E0E7084AD26A31
:1005600002F00F02511C074AB2FBF1F202FB03F347
:10057000054A1360D3E7034A034B1A60CFE700BF75
:100580000010024000127A004000002020000020ED
:1005900000093D0008B5144B1A6842F001021A60C8
:1005A0005968124A0A405A601A6822F0847222F48A
:1005B00080321A601A6822F480221A605A6822F483
:1005C000FE025A60DA6A22F00F02DA62196B084AF8
:1005D0000A401A6300229A60FFF73CFF4FF0006266
:1005E000044B9A6008BD00BF001002400CC07FF8A9
:1005F000CCFC00FF00ED00E083691A888A4207D135
:100600000268033A012A05D802338361012070474A
:10061000002070470020704708B5FFF773FF08BD42
:1006200008B5FFF7B7FF024B024A9A6008BD00BF4A
:1006300000ED00E0000000082DE9F04385B004461D
:100640000F4643560BB10E461EE0042528462146B0
:10065000ABBE0446384605B0BDE8F08314F9011B73
:1006600004AA1A4402F8101C0133AB42F6D304AAC0
:100670001344002203F8102CE9464FF004084046CA
:100680004946ABBE8046761B002EE3D03546102E81
:1006900028BF10250023E8E708B5FFF7CDFF08BD08
:1006A00001230360014B0B60704700BF4400002032
:1006B000FEE70023036043608360C360704700006F
:1006C000F0B5A34B5B6803F00C03042B00F08880AB
:1006D000082B00F08980002B40F09F809D4A02602B
:1006E0009B4A5168C1F30311DFF870E21EF80170F4
:1006F000FFB2016821FA07F545605468C4F302248B
:100700001EF80440E4B225FA04F484605668C6F387
:10071000C2261EF80660F6B2F540C560D26AC2F382
:100720000412DFF83CE23EF8122092B212F0100FF1
:1007300077D0B3FBF2F20261854AD26AC2F3442257
:10074000DFF81CE23EF8122092B212F0100F6AD0CD
:10075000B3FBF2F242617E4A126B12F0100F64D1C9
:100760007C4A82617A4A126B12F0200F5FD1794A7B
:10077000C261774A126B12F4807F5AD08B4258D1F3
:10078000B74256D15A000262714A126B12F4007FCE
:1007900051D08B424FD1B7424DD15B0043626C4B7D
:1007A0001B6B13F0030F48D18562694B1B6B13F46D
:1007B000403F5DD1C462664B1B6B13F4402F75D173
:1007C0000463634B1B6B13F4401F40F08E80446343
:1007D0005F4B1B6B13F4400F40F0A6808463F0BDA9
:1007E0005C4B036000237BE7594A53685268C3F3AC
:1007F0008343023312F4803F04D1574A02FB03F3D0
:1008000003606DE7524AD26A02F00F020132514989
:10081000B1FBF2F202FB03F3F2E74E4B036000235D
:100820005EE7016188E7416195E781619AE7C1610F
:100830009FE70562A8E74562B1E7454B1B6B03F0F4
:100840000303012B01D18162AFE7414B1B6B03F026
:100850000303022B03D14FF400438362A5E73C4B13
:100860001B6B03F00303032B9FD13A4B83629CE77E
:10087000374B1B6B03F44033B3F5803F01D1C162AA
:1008800099E7334B1B6B03F44033B3F5003F03D1BF
:100890004FF40043C3628EE72D4B1B6B03F44033D0
:1008A000B3F5403F87D12B4BC36284E7284B1B6BCA
:1008B00003F44023B3F5802F01D1016381E7244B7A
:1008C0001B6B03F44023B3F5002F03D14FF4004317
:1008D000036376E71E4B1B6B03F44023B3F5402FF5
:1008E0007FF46FAF1B4B03636BE7194B1B6B03F478
:1008F0004013B3F5801F01D1416369E7144B1B6BB3
:1009000003F44013B3F5001F03D14FF400434363D6
:100910005EE70F4B1B6B03F44013B3F5401F7FF4EE
:1009200057AF0C4B436353E7094B1B6B03F4400376
:10093000B3F5800F01D18163F0BD054B1B6B03F450
:100940004003B3F5000F0DD14FF400438363F0BDB6
:100950000010024000127A0000093D003000002023
:1009600004000020044B1B6B03F44003B3F5400F5D
:1009700001D1024B8363F0BD0010024000127A00E7
:1009800010B5044600F0B6FF01462046FFF784FE8E
:1009900001210248FFF780FE10BD00BFD8250008E6
:1009A00008B50348FFF7ECFF0120FFF781FE00BF09
:1009B000002500080FB400B583B004AB53F8042B36
:1009C00001938021064800F0C9FF002803DD01469D
:1009D0000348FFF761FE03B05DF804EB04B0704715
:1009E000D8000020F8B504460D4617461E46274895
:1009F000FFF7E0FF21682648FFF7DCFF6168254824
:100A0000FFF7D8FFA1682448FFF7D4FFE168234827
:100A1000FFF7D0FF21692248FFF7CCFF6169214829
:100A2000FFF7C8FFA1692048FFF7C4FFE1691F482D
:100A3000FFF7C0FF1E48FFF7BDFF29461D48FFF71F
:100A4000B9FF1D4CE16A1D48FFF7B4FF216B1C483C
:100A5000FFF7B0FFE16B1B48FFF7ACFF15F0800F0D
:100A60000AD115F4004F0CD11748FFF7A3FF0699E0
:100A70001648FFF79FFFF8BD39461548FFF79AFF64
:100A8000EFE731461348FFF795FFEDE740250008F3
:100A90005025000860250008702500088025000802
:100AA00090250008A0250008B0250008C0250008F2
:100AB000D0250008DC25000800ED00E0EC2500084A
:100AC000FC2500080C2600083C26000844260008E7
:100AD0001C2600082C26000808B50A4601460248D4
:100AE000FFF768FFFFF75CFF1425000808B52F4BE0
:100AF000984214D0A3F57443984210D003F5806354
:100B000098420CD003F58063984208D003F58063C7
:100B1000984204D04FF4F1612548FFF7DDFF012929
:100B20003CD080293AD0402938D0202936D010290D
:100B300034D0B1F5807F31D0B1F5007F2ED00829B7
:100B40002CD004292AD0022928D0B1F5806F25D0D5
:100B5000B1F5006F22D0B1F5805F1FD0B1F5804FA5
:100B60001CD0B1F5004F19D0B1F5803F16D0B1F5CA
:100B7000003F13D0B1F5802F10D0B1F5002F0DD06C
:100B8000B1F5801F0AD0B1F5001F07D0B1F5800F75
:100B900004D040F289710648FFF79EFFC3691942ED
:100BA00001D0012008BD002008BD00BF0038014071
:100BB000CC24000808B5124B984214D0A3F5744316
:100BC000984210D003F5806398420CD003F58063FF
:100BD000984208D003F58063984204D040F2A131D6
:100BE0000848FFF779FFB1F5007F04D340F2A23146
:100BF0000448FFF771FFC1F30801018508BD00BF7C
:100C000000380140CC24000808B5154B984214D098
:100C1000A3F57443984210D003F5806398420CD03A
:100C200003F58063984208D003F58063984204D0AE
:100C300040F299110B48FFF74FFF012904D94FF4F7
:100C4000CD710848FFF748FF21B1036843F0010365
:100C5000036008BD036823F00103036008BD00BF03
:100C600000380140CC24000810B5224B98420CD02B
:100C7000A3F57443984208D003F58063984204D0EA
:100C800040F26B111C48FFF727FF0B683BB1B3F52F
:100C9000006F04D04FF4B6711748FFF71DFF4B6883
:100CA0003BB1B3F5806F04D040F26D111248FFF7ED
:100CB00013FF8B683BB1B3F5007F04D04FF4B771DD
:100CC0000D48FFF709FFCB683BB1B3F5807F04D037
:100CD00040F26F110848FFF7FFFE426822F470628D
:100CE0000B684C6823438C682343C9680B43134348
:100CF000436010BD00380140CC24000830B591B0ED
:100D000004460D46584B984213D0A3F574439842BD
:100D10000FD003F5806398420BD003F580639842AF
:100D200007D003F58063984203D0DF214F48FFF7D7
:100D3000D3FE2B68013B4E4A934203D9E0214B4836
:100D4000FFF7CAFE6B6833B1B3F5805F03D0E121D2
:100D50004648FFF7C1FEAB684BB1B3F5005F06D064
:100D6000B3F5405F03D0E2214048FFF7B5FEEB68E2
:100D70004BB1B3F5806F06D0B3F5C06F03D0E3215C
:100D80003A48FFF7A9FE2B6933F00C0200D11BB9DA
:100D9000E4213648FFF7A0FE6B6963B1B3F5807FAD
:100DA00009D0B3F5007F06D0B3F5407F03D0E5212D
:100DB0002E48FFF791FE236823F001032360636848
:100DC00023F44053AA6813436360236823F4B053A9
:100DD00023F00C036A68E9680A4329690A4313434C
:100DE0002360A36823F440736A691343A36001A8D6
:100DF000FFF766FC1C4B9C421ED10B9A236813F430
:100E0000004F2AD052002968B2FBF1F301FB1322F4
:100E10002968B2EB510F00D30133226812F4004F5E
:100E200006D0C3F3420223F00F031B041B0C134331
:100E30009BB2A38111B030BD0E4B9C4201D10C9AE4
:100E4000DCE70D4B9C4201D10D9AD7E70B4B9C423E
:100E500001D10E9AD2E70F9AD0E72968B2FBF1F3DD
:100E600001FB1322D4E700BF00380140CC24000866
:100E70007F8D5B000044004000480040004C004073
:100E800008B51B4B984213D0A3F5784398420FD076
:100E900003F5806398420BD0A3F50063984207D016
:100EA000B0F1402F04D040F227511248FFF714FE52
:100EB000802915D0402913D0202911D010290FD016
:100EC00002290DD001290BD0B1F5807F08D004296B
:100ED00006D0082904D04FF4A5610648FFF7FCFDB1
:100EE0000389194201D0012008BD002008BD00BFC0
:100EF000003001409C24000808B50C4B984213D0E8
:100F0000A3F5784398420FD003F5806398420BD045
:100F1000A3F50063984207D0B0F1402F04D040F20F
:100F20006F310348FFF7D8FD007B08BD003001405A
:100F30009C24000808B5094B98420CD0A3F57843CF
:100F4000984208D003F58063984204D040F24E31B5
:100F50000348FFF7C1FD017308BD00BF0030014029
:100F60009C2400082DE9F84305460F461646828961
:100F70004FF47A7403F1FF390BB9BDE8F883DEB1A1
:100F800096F80080013602212846FFF779FFB0B1BC
:100F900041462846FFF7CEFF4FF47A7801212846D4
:100FA000FFF76EFF88B144462846FFF7A5FF0FB153
:100FB000387001374B46DDE74FF0FF08E3E7631E6B
:100FC0009BB2002CE4D01C46DDE708F1FF34A4B24C
:100FD000B8F1000FE8D0A046E0E770B504460E4631
:100FE0004FF47A7502212046FFF74AFF70B131466F
:100FF0002046FFF79FFF4FF47A7501212046FFF747
:101000003FFF48B12046FFF777FF70BD6B1E9BB2D4
:10101000002DECD01D46E5E76B1E9BB2002DF1D0F4
:101020001D46EAE708B5124B98420CD0A3F5784369
:10103000984208D003F58063984204D04FF4FE71C3
:101040000C48FFF749FD012904D940F2FD11094878
:10105000FFF742FD29B103889BB243F040030380B0
:1010600008BD03889BB223F040039BB2038008BDF8
:10107000003001409C24000838B504460D4600218C
:10108000FFF7D0FF23889BB2102D2CD009D8042D58
:101090001DD0082D21D0022D08D123F038039BB29A
:1010A00004E0402D2BD007D8202D22D02380012111
:1010B0002046FFF7B7FF38BD802D26D0B5F5807FDD
:1010C000F4D123F038039BB243F03803EEE723F06A
:1010D00038039BB243F00803E8E723F038039BB2E0
:1010E00043F01003E2E723F038039BB243F0180308
:1010F000DCE723F038039BB243F02003D6E723F06C
:1011000038039BB243F02803D0E723F038039BB2A7
:1011100043F03003CAE7000008B520F4EF2323F0C2
:10112000010303B920B940F27F510B48FFF7D4FC0B
:10113000012904D94FF4B0610748FFF7CDFC21B174
:10114000064B9A691043986108BD044A936923EAE3
:101150000000906108BD00BF6C2400080010024030
:1011600008B50E4B034003B920B940F25C510C485E
:10117000FFF7B2FC012904D940F25D510848FFF79E
:10118000ABFC21B1074B5A691043586108BD054AB1
:10119000536923EA0000506108BD00BFA8FF81CE5B
:1011A0006C2400080010024010B5C378012B03D94D
:1011B00081211F48FFF790FC43780F2B03D9822130
:1011C0001B48FFF789FC83780F2B03D9832118482C
:1011D000FFF782FCC378FBB1164BDA68D243C2F347
:1011E0000222C2F104040F2121FA02F24378A34043
:1011F00081780A4013431B010278DBB20E490A448E
:1012000082F800330378580903F01F03012202FA21
:1012100003F341F8203010BD03785A0903F01F038F
:10122000012101FA03F32032034941F8223010BDB5
:101230003824000800ED00E000E100E000B583B0D4
:1012400025238DF8043000238DF805308DF8063005
:1012500001238DF8073001A8FFF7A6FF03B05DF862
:1012600004FB000038B5B0F1904F17D01F4B9842E7
:1012700014D003F58063984210D003F58063984240
:101280000CD003F58063984208D003F58063984240
:1012900004D040F203211648FFF71EFC0F2904D9A1
:1012A0004FF401711248FFF717FC0B2A08D90E2AD8
:1012B00006D00F2A04D040F205210D48FFF70CFCA0
:1012C00001F007039B009A40C908083150F82140FB
:1012D0000F2505FA03F324EA030340F8213050F800
:1012E00021301A4340F8212038BD00BF00040048D7
:1012F0000424000808B5B0F1904F17D00F4B984266
:1013000014D003F58063984210D003F580639842AF
:101310000CD003F58063984208D003F580639842AF
:1013200004D04FF4CD710648FFF7D6FB21B940F247
:101330009B110348FFF7D0FB018508BD000400485E
:101340000424000808B5B0F1904F17D00F4B984215
:1013500014D003F58063984210D003F5806398425F
:101360000CD003F58063984208D003F5806398425F
:1013700004D04FF4C4710648FFF7AEFB21B940F228
:1013800089110348FFF7A8FB816108BD00040048EC
:10139000042400082DE9F04182B080460C4617462F
:1013A000104D4FF400712846FFF7A4FF0E4E48F091
:1013B00080013046FFF711FE23460DF10702394642
:1013C0003046FFF7CFFD4FF400712846FFF7BAFF14
:1013D0009DF807309C4203D9002002B0BDE8F0819F
:1013E0000120FAE7000400480030014030B583B026
:1013F00004466A4606214320FFF7CCFF0546E8B1C4
:101400009DF800309DF8010040EA032000B200F092
:10141000A5FF20609DF802309DF8030040EA0320FC
:1014200000B200F09BFF60609DF804309DF805005D
:1014300040EA032000B200F091FFA060284603B00C
:1014400030BD0000F8B507460E460B4C4FF4007156
:101450002046FFF74FFF094D39462846FFF7BDFDEF
:1014600031462846FFF7B9FD4FF400712046FFF7DB
:1014700069FF0120F8BD00BF0004004800300140B2
:1014800008B580216B20FFF7DDFF6420FEF7BCFF6D
:1014900007216820FFF7D6FF00216B20FFF7D2FF5E
:1014A00001216B20FFF7CEFF18211B20FFF7CAFF99
:1014B00010211C20FFF7C6FF00211A20FFF7C2FFF2
:1014C00000211920FFF7BEFF0F20FEF79DFF12211C
:1014D0003720FFF7B7FF01213820FFF7B3FF08BD22
:1014E000F8B5B0F1904F16D03F4B984213D003F5AA
:1014F000806398420FD003F5806398420BD003F5C8
:101500008063984207D003F58063984203D0B921E5
:101510003648FFF7E1FA0B681BB9BA213348FFF7E9
:10152000DBFA0B79032B03D9BB213048FFF7D4FA40
:10153000CB79022B55D9BC212C48FFF7CDFA0122DB
:101540009A400C68A24348D10A79013AD2B2012AE2
:101550002AD84A79013AD2B2022A03D9CC212348A7
:10156000FFF7BAFA85685F000326BE4025EA060544
:10157000856082684C79BC40224382608A79012A66
:1015800003D9D3211948FFF7A7FA8588ADB29FB2D6
:101590000126BE4025EA06058580828892B28C79B4
:1015A000BC40A4B22243828004685D00032202FA98
:1015B00005F624EA0604046004680E79AE4034435C
:1015C0000460C4689EB27600B24024EA0202C2609F
:1015D000C268CC79AC402243C26001330F2BAED934
:1015E000F8BD0023FAE700BF000400480424000807
:1015F000144B1B782BBB70B582B001214FF48020B7
:10160000FFF7AEFD4FF40076009601248DF80440FC
:1016100003238DF8053000238DF806308DF8073050
:10162000094D69462846FFF75BFF31462846FFF71C
:1016300089FE04210548FFF71FFD024B1C7002B014
:1016400070BD70475C01002000040048003001407C
:1016500000B583B0FFF7CCFFFFF712FF0DF10702D3
:1016600001217520FFF796FE9DF80700712814BF31
:101670000020012003B05DF804FB000030B583B00A
:1016800001214FF48020FFF76BFD4FF4807500952A
:1016900001238DF8043000238DF8063003228DF8E5
:1016A00005208DF80730054C69462046FFF718FFE6
:1016B00029462046FFF71EFE03B030BD0004004857
:1016C000F0B585B00446FFF7B9FD244D2C60002627
:1016D0006E60AE60EE606E610C232B6101214FF4F1
:1016E0000030FFF73DFD6846FEF7E3FF1C4F6946FB
:1016F0003846FFF7B9FA01214FF48040FFF70CFD9F
:10170000072209214FF09040FFF7ACFD07220A2184
:101710004FF09040FFF7A6FD124C4FF4007323608A
:101720000223237103236371A6710126E67121460A
:101730004FF09040FFF7D4FE4FF4806323602146C2
:101740004FF09040FFF7CCFE29463846FFF7D6FA17
:1017500031463846FFF758FA05B0F0BDC00000200A
:1017600000380140B800002000B585B04848FFF7B8
:1017700007F9484B19684848FFF71CF9FEF74EFE79
:101780004FF4E130FFF79CFFFFF778FFFFF760FFB2
:1017900020B146214148FFF70DFAFAE761213F48A1
:1017A000FFF708FA3E4C4FF480712046FFF7CAFD60
:1017B0004FF47A70FEF728FE4FF480712046FFF751
:1017C00099FD4FF47A70FEF71FFE01A8FFF70EFE99
:1017D0000028E7D061213148FFF7ECF940212F487C
:1017E000FFF784F90028F9D061212C48FFF7E2F9CE
:1017F00040212A48FFF77AF90028F9D0019B00938D
:101800000024032C14D9029B00930024032C1FD91D
:10181000039B00930024032C2AD940211F48FFF783
:1018200065F90028F9D00A211C48FFF7C3F9B9E788
:1018300004AB234413F8101C1848FFF7BBF94021F0
:101840001648FFF753F90028F9D00134E4B2D8E77D
:1018500004AB234413F8101C1048FFF7ABF94021E8
:101860000E48FFF743F90028F9D00134E4B2CDE780
:1018700004AB234413F8101C0848FFF79BF94021E0
:101880000648FFF733F90028F9D00134E4B2C2E783
:101890005C26000840000020702600080038014047
:1018A0000004004808B503460C4A12685AB10B4AB6
:1018B0001068033323F003030344094A934206D814
:1018C000064A136008BD0749044A1160EFE700F0BB
:1018D0000BF80C2303604FF0FF3008BD58010020C7
:1018E000009C002078010020014B1868704700BF61
:1018F0004C000020034613F8012B002AFBD1181AD4
:101900000138704730B5141E05469BB0184605DAFD
:101910008B232B604FF0FF301BB030BD4FF40273B0
:10192000ADF80C3014BF04F1FF3323460293059346
:101930004FF6FF7300910491ADF80E3002461E9BE6
:101940006946284600F074F8431CBCBF8B232B600B
:10195000002CE1D0009B00221A70DDE707B5009350
:1019600013460A46014603480068FFF7CBFF03B061
:101970005DF804FB4C0000202DE9F0478E689E4284
:1019800082460C469146984635D88A8912F4906F63
:1019900031D0256809696F1A6569022305EB450591
:1019A00095FBF3F508F101033B449D4238BF1D460A
:1019B000530531D5294600F085FB064650B90C2366
:1019C000CAF80030A38943F04003A3814FF0FF30F1
:1019D000BDE8F0873A46216900F00AFBA38923F4A9
:1019E000906343F08003A381266165613E44ED1B53
:1019F0002660A5604646464528BF464632464946CB
:101A0000206800F000FBA3689B1BA36023681E44B2
:101A100026600020BDE8F0872A4600F0A5FB0646B8
:101A20000028E1D12169504600F008FBC7E700001B
:101A30002DE9F04F9DB0804603938B891C060D461F
:101A400016460FD50B696BB9402100F03BFB2860AF
:101A5000286128B90C23C8F800304FF0FF30C5E0EA
:101A600040236B610023099320238DF82930302314
:101A70008DF82A304FF0010B37463C4614F8013BF5
:101A8000002B3CD1B7EB060A0BD053463246294611
:101A90004046FFF771FF013000F0A380099B5344DB
:101AA00009933B78002B00F09C8000234FF0FF321D
:101AB00004930793059206938DF853301A930522E9
:101AC0002178504800F044FA671C049BD8B9D90625
:101AD00044BF20228DF853201A0744BF2B228DF8D3
:101AE000532022782A2A16D0079A00210A20274656
:101AF00001343B78303B092B51D9C9B111E0252B7A
:101B0000C0D02746B9E73F4A801A0BFA00F01843C5
:101B100004903C46D3E7039A111D12680391002AF2
:101B200001DB079204E0524243F002030792049360
:101B30003B782E2B0ED17B782A2B07F1010132D175
:101B4000039B1A1D1B680392002BB8BF4FF0FF3395
:101B5000023705932C4C39780322204600F0F8F91F
:101B600038B14023001B03FA00F0049B03430493A5
:101B70000137397825488DF8281006227E1C00F0A0
:101B8000E7F9002835D0224BFBB9039B073323F03C
:101B9000070308330393099B4B4409936CE700FB4D
:101BA00002320121A3E70023059318460A240F46B9
:101BB00001313A78303A092A03D9002BCAD005906E
:101BC000C8E704FB00200123F1E703AB00932A469A
:101BD000104B04A94046AFF30080B0F1FF3F8146AF
:101BE000D9D1AB895B063FF538AF09981DB0BDE888
:101BF000F08F03AB00932A46064B04A9404600F041
:101C000081F8EAE7B3260008B9260008BD260008D7
:101C100000000000791900082DE9F04791461F46A1
:101C20008A680B69DDF820809342B8BF1346C9F873
:101C3000003091F8432006460C4612B10133C9F832
:101C400000302368990642BFD9F800300233C9F842
:101C50000030256815F0060507D104F1190AE3687C
:101C6000D9F800209B1A9D4229DB94F84330226862
:101C7000003318BF012392062ED404F143023946E3
:101C80003046C047013021D02368E568D9F80020EC
:101C900003F00603042B08BFAD1AA36822690CBF2A
:101CA00025EAE57500259342C4BF9B1AED184FF055
:101CB00000091A344D451BD10020BDE8F0870123EF
:101CC000524639463046C047013003D14FF0FF300D
:101CD000BDE8F0870135C2E7E1185A1C302081F8D1
:101CE0004300224494F8451082F843100233C4E7BD
:101CF0000123224639463046C0470130E6D009F17B
:101D00000109D7E72DE9F04317460A7E85B06E2A10
:101D1000984606460C460C9B01F1430E00F0BC8031
:101D20001AD8632A2ED00AD8002A00F0C880582A70
:101D300000F08A8004F1420584F842202AE0642AF7
:101D400001D0692AF6D121681A6811F0800F23D0DA
:101D5000111D1960136827E0732A00F0B48008D8B9
:101D60006F2A2AD0702AE5D10A6842F020020A6060
:101D700003E0752A21D0782ADCD1782284F8452026
:101D80006E4964E01A6801F14205111D196013687B
:101D900084F842300123A3E011F0400F02F1040166
:101DA0001960D7D0B2F90030002B03DA2D225B4244
:101DB00084F8432062490A2217E02068196810F06D
:101DC000800F03D0081D18600B6806E010F0400F6C
:101DD00001F104001860F7D00B8859496F2A14BF2D
:101DE0000A220822002084F843006568A560002DBF
:101DF000C0F29C80206820F004002060002B3FD1BE
:101E0000002D40F095807546082A0BD12368DA072B
:101E100008D5236962689A42DEBF302305F8013C89
:101E200005F1FF35AEEB05032361CDF800803B469D
:101E300003AA21463046FFF7EFFE013055D14FF09F
:101E4000FF3005B0BDE8F08381F845203C492268A9
:101E5000186812F0800F00F104051D6001D00368BE
:101E600002E05506FBD50388D00744BF42F02002AC
:101E700022601BB9226822F0200222601022B1E702
:101E80007546B3FBF2F002FB1033CB5C05F8013D65
:101E900003460028F5D1B7E708681A68496910F0C9
:101EA000800F04D0101D18601368196007E010F04F
:101EB000400F02F1040018601368F6D01980002367
:101EC00023617546B1E71A68111D196015686268CB
:101ED0000021284600F03CF808B1401B60606368B0
:101EE0002361002384F843309FE723692A4639465B
:101EF0003046C0470130A2D023689B0707D5002594
:101F000004F11909E368039A9B1A9D4205DBE06816
:101F1000039B9842B8BF184693E701234A463946C7
:101F20003046C04701308AD00135EBE7002BA7D1FE
:101F30000B7884F8423004F1420565E7D5260008A5
:101F4000C42600080000000000000000000000009F
:101F500001F0FF01102A2BDB10F0070F08D010F85A
:101F6000013B013A8B422DD010F0070F42B3F6D15E
:101F7000F0B441EA012141EA014122F007047FF077
:101F800000070023F0E80256083C85EA010586EACE
:101F9000010685FA47F5A3FA87F586FA47F6A5FA0A
:101FA00087F68EB9EED1F0BC01F0FF0102F0070216
:101FB00032B110F8013B013A83EA010313B1F8D1C1
:101FC0000020704701387047002D06BF35460338A2
:101FD000073815F0010F07D1013015F4807F02BFDB
:101FE000013015F4C03F0130F0BC0138704700BF2C
:101FF00010B5431E0A44914200D110BD11F8014BA7
:1020000003F8014FF7E7884210B501EB020303D84C
:10201000421E99420CD110BD9842F9D28118D21AB1
:10202000D34200D110BD13F8014D01F8014DF7E77F
:1020300011F8014B02F8014FEBE7000030B5002921
:102040002ED051F8042C0B1F1D49002AB8BF9B1835
:102050000A680C4612B95A600B6030BD9A420CD91E
:10206000186819188A4204BF116852685A6004BF80
:1020700009181960236030BD0A46516809B19942B8
:10208000FAD9146815199D420BD11B682344D01846
:102090008142136004D10868034413604B685360A5
:1020A00030BD02D90C23036030BD1C681819814271
:1020B00004BF08684968596004BF00191860EEE75A
:1020C0006801002070B5CD1C25F0030508350C2DE6
:1020D00038BF0C25002D064603DA0C2333600020A0
:1020E00070BDA942F9D81E4804682146C9B91D4CE3
:1020F00023681BB9304600F05DF820602946304661
:1021000000F058F8431CE8D0C31C23F00304A0429D
:1021100005D0211A304600F04DF80130DDD02560A1
:1021200007E00A68521B17D40B2A0CD90A608D509D
:102130008C1804F10B00221D20F00700821A0ED02B
:102140005142A15070BD8C420DBF62684A68626006
:10215000026018BF0C46ECE70C464968C6E770BD44
:10216000680100206C010020F8B5074614460E46B1
:1021700021B91146BDE8F840FFF7A4BF22B9FFF727
:102180005DFF25462846F8BD00F024F884420FD9AB
:1021900021463846FFF796FF05460028F2D0314623
:1021A0002246FFF725FF31463846FFF747FFE9E7AC
:1021B0003546E7E738B5064C002305460846236058
:1021C000FFF770FB431C02D1236803B12B6038BDBD
:1021D0007001002051F8040C0028A0F10400BCBFDD
:1021E0000B58C0187047000080F0004002E000BFAC
:1021F00081F0004142001FBF5FEA410392EA030FF2
:102200007FEA226C7FEA236C6AD04FEA1262D2EB3B
:102210001363C1BFD218414048404140B8BF5B4240
:10222000192B88BF704710F0004F40F4000020F0D9
:102230007F4018BF404211F0004F41F4000121F0EF
:102240007F4118BF494292EA030F3FD0A2F1010239
:1022500041FA03FC10EB0C00C3F1200301FA03F177
:1022600000F0004302D5494260EB4000B0F5000F9A
:1022700013D3B0F1807F06D340084FEA310102F159
:102280000102FE2A51D2B1F1004F40EBC25008BF0B
:1022900020F0010040EA03007047490040EB0000D5
:1022A00010F4000FA2F10102EDD1B0FA80FCACF104
:1022B000080CB2EB0C0200FA0CF0AABF00EBC25003
:1022C00052421843BCBFD0401843704792F0000FF1
:1022D00081F4000106BF80F400000132013BB5E744
:1022E0004FEA41037FEA226C18BF7FEA236C21D0BA
:1022F00092EA030F04D092F0000F08BF084670471F
:1023000090EA010F1CBF0020704712F07F4F04D1EC
:10231000400028BF40F00040704712F100723CBFFF
:1023200000F50000704700F0004343F0FE4040F429
:10233000000070477FEA226216BF08467FEA2363E7
:102340000146420206BF5FEA412390EA010F40F4D2
:10235000800070474FF0000304E000BF10F000431E
:1023600048BF40425FEA000C08BF704743F0964305
:1023700001464FF000001CE050EA010208BF704720
:102380004FF000030AE000BF50EA010208BF7047A7
:1023900011F0004302D5404261EB41015FEA010CBC
:1023A00002BF84460146002043F0B64308BFA3F1B4
:1023B0008053A3F50003BCFA8CF2083AA3EBC25396
:1023C00010DB01FA02FC634400FA02FCC2F12002B5
:1023D000BCF1004F20FA02F243EB020008BF20F0EC
:1023E0000100704702F1200201FA02FCC2F1200252
:1023F00050EA4C0021FA02F243EB020008BF20EA47
:10240000DC7070472E2E2F73797374656D2F737285
:10241000632F73746D333266332D73746470657219
:102420006970682F73746D3332663330785F67700C
:10243000696F2E63000000002E2E2F737973746570
:102440006D2F7372632F73746D333266332D737413
:10245000647065726970682F73746D3332663330DF
:10246000785F6D6973632E63000000002E2E2F735A
:10247000797374656D2F7372632F73746D33326665
:10248000332D7374647065726970682F73746D3363
:1024900032663330785F7263632E63002E2E2F73A3
:1024A000797374656D2F7372632F73746D33326635
:1024B000332D7374647065726970682F73746D3333
:1024C00032663330785F7370692E63002E2E2F735F
:1024D000797374656D2F7372632F73746D33326605
:1024E000332D7374647065726970682F73746D3303
:1024F00032663330785F75736172742E630000004A
:1025000061626F727428292C2065786974696E671E
:102510002E2E2E006173736572745F706172616D2F
:102520002829206661696C65643A2066696C6520BB
:10253000222573222C206C696E652025640A000018
:10254000537461636B206672616D653A0A00000026
:10255000205230203D2020253038580A000000004D
:10256000205231203D2020253038580A000000003C
:10257000205232203D2020253038580A000000002B
:10258000205233203D2020253038580A000000001A
:1025900020523132203D20253038580A00000000FA
:1025A000204C52203D2020253038580A00000000E1
:1025B000205043203D2020253038580A00000000DC
:1025C00020505352203D20253038580A000000008A
:1025D0004653522F4641523A0A00000020434653C8
:1025E00052203D2020253038580A0000204846530C
:1025F00052203D2020253038580A00002044465300
:1026000052203D2020253038580A000020414653F2
:1026100052203D2020253038580A0000204D4D46DC
:102620004152203D20253038580A000020424641C2
:1026300052203D2020253038580A00004D69736330
:102640000A000000204C522F4558435F5245545514
:10265000524E3D20253038580A00000048656C6C09
:102660006F2041524D20576F726C642100000000B2
:1026700053797374656D20636C6F636B3A202575B5
:1026800020487A0A000000005B5573616765466167
:10269000756C745D0A0000005B4275734661756C71
:1026A000745D0A005B486172644661756C745D0A12
:1026B000004300232D302B2000686C4C00656667BA
:1026C00045464700303132333435363738394142A8
:1026D000434445460030313233343536373839617A
:0626E00062636465660000
:1026E80078563412000001000200040006000800B9
:1026F8000A000C0010002000400080000001FFFFCD
:102708000000000000000000010203040607080999
:10271800000000000102030401020304060708097F
:1027280000A24A04600100200000000050000020C0
:102738000000000000000000000000000000000091
:102748000000000000000000000000000000000081
:10275800B126000800000000000000000000000092
:102768000000000000000000000000000000000061
:102778000000000000000000000000000000000051
:102788000000000000000000000000000000000041
:0427980032547698A9
:04000005080002A548
:00000001FF
